:100000000C942A000C9434000C9434000C943400AA
:100010000C9434000C9434000C9434000C94340090
:100020000C9434000C9434000C9434000C94340080
:100030000C9434000C9434000C9434000C94340070
:100040000C9434000C9434000C9434000C94340060
:100050000C94340011241FBECFE5D8E0DEBFCDBF25
:100060000E949B010C9401020C94000083B78560F0
:1000700083BF08958130910519F483B7816012C060
:100080008830910519F483B782600CC080349105E3
:1000900019F483B7836006C0811521E0920721F42B
:1000A00083B7846083BF08958115944011F40C9444
:1000B000360008958130910519F48EB5816018C01D
:1000C0008830910519F48EB5826012C08034910594
:1000D00019F48EB583600CC0811521E0920719F4E4
:1000E0008EB5846005C08115944019F48EB5856085
:1000F0008EBD08958130910519F425B5216005C0A4
:100100008830910521F425B5226025BD13C08032C9
:10011000910521F425B5236025BD13C080349105D8
:1001200019F485B5846012C08038910519F485B53D
:1001300085600CC0811521E0920719F485B58660B1
:1001400005C08115944019F485B5876085BD089573
:100150008130910539F46130710511F4939A2AC008
:10016000939828C08230910539F46130710511F4FB
:10017000949A20C094981EC08330910539F4613060
:10018000710511F4959A0895959808958430910514
:1001900039F46130710511F4909A0895909808959A
:1001A0008530910539F46130710511F4919A089503
:1001B00091980895069731F46130710511F4929A7F
:1001C0000895929808950F931F93CF93DF938B0117
:1001D000EA0181309105E9F494989598919A929A60
:1001E00090980E94360081E090E00E947A0012BE52
:1001F00014BC82B790E0C817D9074CF084B590E0E2
:100200008017910714F4939AF4CF9398F2CF9398B0
:100210003EC082309105E9F493989598909A929A0D
:1002200091980E94360081E090E00E947A0012BE10
:1002300014BC82B790E0C817D9074CF084B590E0A1
:100240008017910714F4949AF4CF9498F2CF94986D
:100250001EC00397E1F493989498909A919A92987B
:100260000E94360081E090E00E947A0012BE14BC29
:1002700082B790E0C817D9074CF084B590E080179A
:10028000910714F4959AF4CF9598F2CF9598DF9151
:10029000CF911F910F9108950F931F93CF93DF93E9
:1002A0008B01C1E0D0E094989598A801BE0181E04F
:1002B00090E00E94E300939893989598A801BE015E
:1002C00082E090E00E94E300949893989498A801AB
:1002D000BE0183E090E00E94E30095982196CF3F15
:1002E000D10509F794989598A801BE0181E090E0A6
:1002F0000E94E300939893989598A801BE0182E02C
:1003000090E00E94E300949893989498A801BE010D
:1003100083E090E00E94E30095982197C130D105D9
:1003200009F7DF91CF911F910F910895CD9714F4A4
:100330009498959A08958B9A8C9A8D9A889A899A0E
:100340008A9ACAE0D0E0C431D1054CF445E050E0CF
:10035000BE0181E090E00E94E3002196F4CF42E3E9
:1003600050E068E270E081E090E00E94E300C4E1C8
:10037000D0E045E050E0BE0181E090E00E94E30063
:100380002197CA30D105A9F745E050E0BE0182E0CF
:1003900090E00E94E3002196C431D105A9F742E321
:1003A00050E068E270E082E090E00E94E30045E007
:1003B00050E0BE0182E090E00E94E3002197CA3045
:1003C000D105A9F745E050E0BE0183E090E00E942E
:1003D000E3002196C431D105A9F742E350E068E279
:1003E00070E083E090E00E94E30045E050E0BE0151
:1003F00083E090E00E94E3002197CA30D105A9F77D
:06040000A2CFF894FFCF2B
:00000001FF
