:100000000EC01DC01CC01BC01AC019C018C017C02C
:1000100016C015C014C013C012C0E3C0F7C011242D
:100020001FBECFE5D2E0DEBFCDBF20E0A0E6B0E04E
:1000300001C01D92A738B207E1F7ACD1CDC1E0CF26
:10004000C09AC29ABA9AB89A8FEF8FB98AE28DB9DC
:1000500080EF8EB908958091860008958EB98BE265
:1000600000C000C000008DB9B29BFECF00C000C030
:1000700000008DB9769BF4CF00C000C000008FB1A6
:100080009FEF9FB9B89A0895C098C29AB29BFECFCD
:1000900000C000C00000C09A00C000C0000081E0A5
:1000A00008950F931F93CF93DF93162F21E0209392
:1000B0008600FC01208120FD03C023E02093860000
:1000C000C29AB29BFECF00C000C00000C09800C022
:1000D00000C00000C298C09AEC010FEF809186002A
:1000E0008370F9F0C29888818FB980EFB7DFB89834
:1000F0008EEFB4DF80FF0FC090918600892F817052
:1001000090FF05C086E08093860080E01BC095E0EC
:100110009093860017C0809186008E7F8093860022
:100120000BC0B89880EF9ADF8883113011F40FB9B3
:1001300001C01FB88EEF92DF115021961111CECF62
:10014000A3DF81E0DF91CF911F910F91089510926D
:100150007200109273001092600010926100089576
:10016000CF93DF931F92CDB7DEB778948983EFDF0B
:10017000898180938500C29AC09ABA9AB89888EA11
:100180008DB980EF8EB90F90DF91CF910895909146
:1001900061009F5F9F70209160009217E1F3E92F4B
:1001A000F0E0EE59FF4F80839093610008958091B5
:1001B0007200909173009817E1F3E0917200EF5F85
:1001C000EF70E0937200F0E0EC58FF4F80810895EB
:1001D000909172002091730081E0291301C080E0AA
:1001E00008951F920F920FB60F9211248F938EB124
:1001F00010928400B89886B388EF8DB980EF8EB9DD
:100200008F910F900FBE0F901F9018951F920F9215
:100210000FB60F9211248F939F93EF93FF938091CA
:100220008400823009F446C028F48823C1F081306C
:1002300031F153C0843009F443C0F0F0853009F047
:100240004CC09FB1809173008F5F8F70809373005B
:10025000E0917300F0E0EC58FF4F908337C08FB10E
:10026000882331F08FB186959091850089131FC046
:10027000789B2CC081E02BC08FB1811118C0809178
:10028000600090916100981791F0809160008F5FFD
:100290008F7080936000E0916000F0E0EE59FF4FB6
:1002A00080818FB982E080938400B89A0DC088EA7B
:1002B0008DB90AC083E080938400B8981FB80BC042
:1002C00085E080938400B89880E706C084E080933E
:1002D00084001FB8B89A8EE78EB9FF91EF919F9175
:1002E0008F910F900FBE0F901F901895C39A87EAB9
:1002F00091E60197F1F700C0000088B398E08927E4
:1003000088BB87EA91E60197F1F700C00000C49A24
:1003100087EA91E60197F1F700C0000088B390E109
:10032000892788BB87EA91E60197F1F700C00000B2
:10033000089520E030E0992787FD9095E3EDF0E304
:100340003197F1F700C00000AC01022E02C05595B4
:1003500047950A94E2F740FF0CC0C39AFFE54AEEC6
:1003600050E0F15040405040E1F700C00000C39819
:100370000BC0C49A6FE5EAEEF0E06150E040F04057
:10038000E1F700C00000C4982F5F3F4F28303105CF
:10039000A9F60895CF93DF9300D000D01F92CDB778
:1003A000DEB787B3886187BB4BDE80EE89838FE041
:1003B0008A838AEA8B8363E0CE01019672DE88230A
:1003C000D1F381EE8C8362E0CE0104966ADE88234D
:0C03D000D1F38D81AEDFFFCFF894FFCF9A
:00000001FF
