:100000000EC015C014C013C012C011C010C00FC064
:100010000EC00DC00CC00BC00AC009C008C011241E
:100020001FBECFE5D2E0DEBFCDBF22D032C0E8CFC9
:1000300086B1876886B90895BA9A089583B78560AE
:1000400083BF0895843091054CF497B1982B97B9EC
:10005000369A3699FECF84B195B108958FEF9FEF10
:10006000089512BE22B730E028173907DCF308954F
:10007000DFDFE2DFE3DFC4E083E090E0E3DF823054
:10008000910524F412BEC8BB0197B1F718BA12BE8D
:06009000F3CFF894FFCF4E
:00000001FF
