:100000000EC015C014C013C012C079C010C00FC0FC
:100010000EC00DC068C00BC00AC009C008C01124C2
:100020001FBECFE5D2E0DEBFCDBF75D07DC0E8CF2B
:1000300083B7826083BF089582E189BF089586B146
:10004000876086B987B1836087B9089587B3826175
:1000500087BB08950895379A369A3699FECF379818
:1000600084B195B10895C19A87EA91E60197F1F7B5
:1000700000C00000C19887EA91E60197F1F700C03F
:100080000000089520E030E0992787FD9095E3ED8A
:10009000F0E33197F1F700C00000AC01022E02C07E
:1000A000559547950A94E2F740FF0CC0C19AFFE5C9
:1000B0004AEE50E0F15040405040E1F700C00000EF
:1000C000C1980BC0C49A6FE5EAEEF0E06150E040E1
:1000D000F040E1F700C00000C4982F5F3F4F283088
:1000E0003105A9F608951F920F920FB60F921124B1
:1000F000C19AC4980F900FBE0F901F9018951F9231
:100100000F920FB60F921124C198C49A0F900FBE90
:100110000F901F9018959ADF92DF8ADF82E189BFE6
:0C01200078948AE089BDFECFF894FFCFF0
:00000001FF
