:1000000013C01AC019C018C017C016C015C014C03C
:1000100013C012C011C010C01FC00EC028C00CC039
:100020000BC00AC009C008C011241FBECFEFD1E029
:10003000DEBFCDBF27D03BC0E3CF509A089585B532
:10004000816085BD089585B3836085BBEEE6F0E0F1
:1000500080818360808308951F920F920FB60F9264
:100060001124589A0F900FBE0F901F9018951F9251
:100070000F920FB60F92112458980F900FBE0F9049
:100080001F901895DADFDBDFDEDF789480E487BD30
:1000900080E090E087BDE9EFF0E03197F1F700C034
:1000A000000001968F3F9105A9F3A4F3F1CFF894D6
:0200B000FFCF80
:00000001FF
