:1000000013C01AC019C018C017C016C015C014C03C
:1000100013C012C011C010C02AC00EC033C00CC023
:100020000BC00AC009C008C011241FBECFEFD1E029
:10003000DEBFCDBF32D040C0E3CF509A0895E0E894
:10004000F0E0808181608083E1E8F0E08081886079
:100050008083089585B5816085BD089585B38360EB
:1000600085BBEEE6F0E080818360808308951F9277
:100070000F920FB60F921124589A0F900FBE0F9047
:100080001F9018951F920F920FB60F921124589837
:100090000F900FBE0F901F901895CFDFDBDFDEDFD4
:1000A000789480E487BD80E090E087BD01968F3F23
:0C00B0009105D9F3D4F3F7CFF894FFCFFB
:00000001FF
