:100000000EC015C040C013C012C011C010C00FC038
:100010000EC00DC00CC00BC00AC009C008C011241E
:100020001FBECFE5D2E0DEBFCDBF37D049C0E8CF9D
:10003000B99ABA9A8AE090E034E028B3232728BB23
:100040002FEF40E752E0215040405040E1F700C020
:1000500000000197009789F708958BB780628BBFE6
:10006000AB9A379885B7877E806185BF85B78062F8
:1000700085BF78948895F894AB9885B78F7D85BFB8
:10008000379A789408951F920F920FB60F92112409
:100090000F900FBE0F901F901895CADF22E094E0DA
:1000A00088B3822788BB88B3892788BB3FEF40E7A6
:1000B00082E0315040408040E1F700C00000F0CFC6
:0400C000F894FFCFE2
:00000001FF
