:100000000EC015C014C013C012C011C010C00FC064
:100010000EC00DC00CC00BC00AC009C008C011241E
:100020001FBECFE5D2E0DEBFCDBFCAD011C1E8CF41
:100030008130910519F483B7816018C0883091052B
:1000400019F483B7826012C08034910519F483B724
:1000500083600CC0811521E0920719F483B7846096
:1000600005C08115944019F483B7856083BF089556
:100070008D339105ACF46FEF70E0B2D06CE370E0BB
:10008000C0D0C29AC09AC19812BE82B78F3F39F0D1
:1000900082B790E068177907C4F7C298F6CF089541
:1000A00089379105DCF428E730E0A901481B590B9A
:1000B000CA016FEF70E094D06CE370E0A2D0C29AF6
:1000C000C09AC19812BE82B78F3F39F082B790E0D4
:1000D00068177907C4F7C098F6CF0895853B910556
:1000E000BCF4885791096FEF70E07AD06CE370E050
:1000F00088D0C29AC19AC09812BE82B78F3F39F099
:1001000082B790E068177907C4F7C198F6CF0895D1
:10011000813F9105DCF420EF30E0A901481B590B29
:10012000CA016FEF70E05CD06CE370E06AD0C29AF5
:10013000C19AC09812BE82B78F3F39F082B790E063
:1001400068177907C4F7C298F6CF08958D3251E049
:100150009507BCF4805F91096FEF70E041D06CE3CC
:1001600070E04FD0C298C19AC09A12BE82B78F3F3A
:1001700039F082B790E068177907C4F7C098F6CFD6
:100180000895893621E09207D4F428E631E0A901E8
:10019000481B590BCA016FEF70E022D06CE370E08E
:1001A00030D0C298C19AC09A12BE82B78F3F39F040
:1001B00082B790E068177907C4F7C198F6CF089521
:1001C000BA9AB99AB89A80E490E032DFC0E0D0E001
:1001D000CE014EDF2196C83681E0D807CCF3F6CFAA
:1001E0000024552704C0080E591F880F991F009737
:1001F00029F076956795B8F37105B9F7802D952F9D
:10020000089597FB072E16F4009406D077FD08D0CA
:100210000BD007FC05D03EF4909581959F4F089533
:10022000709561957F4F0895AA1BBB1B51E107C0D4
:10023000AA1FBB1FA617B70710F0A61BB70B881F76
:10024000991F5A95A9F780959095BC01CD01089505
:04025000F894FFCF50
:00000001FF
