:100000000EC01DC01CC01BC01AC019C018C017C02C
:1000100016C015C014C013C012C011C010C01124E6
:100020001FBECFE5D2E0DEBFCDBF20E0A0E6B0E04E
:1000300001C01D92A836B207E1F74BD052C0E0CF05
:1000400087B5806887BD80B7836080BF8FEF8BBD29
:100050008DBDBC9A8CB580638CBD8CB580648CBD25
:1000600080B7806180BF089586B1876086B90895A2
:10007000BC9A089508956BBD8DBD0895379A399A3D
:10008000369A3699FECF379884B195B10895379A4C
:1000900087B18F6087B987B18F7A87B93F9A369ACF
:1000A0003699FECF87B18F7387B9379884B195B1F0
:1000B0000895379A87B1836087B9369A3699FECF0B
:1000C000379884B195B10895089580E090E008953F
:1000D0000895CEDFB5DFC8DF90E88FEF9BBD8DBD03
:0600E000FDCFF894FFCFF4
:00000001FF
