:100000000C9434000C943E000C943E000C943E0082
:100010000C943E000C943E000C943E000C943E0068
:100020000C943E000C943E000C943E000C943E0058
:100030000C943E000C943E000C944B000C943E003B
:100040000C9456000C943E000C943E000C943E0020
:100050000C943E000C943E000C943E000C943E0028
:100060000C943E000C943E0011241FBECFEFD8E04C
:10007000DEBFCDBF0E9461000C9482000C94000092
:10008000509A089584B5816084BD089583E085BB4E
:1000900080936E0008951F920F920FB60F92112455
:1000A000589A0F900FBE0F901F9018951F920F92A5
:1000B0000FB60F92112458980F900FBE0F901F90FB
:1000C00018950E9440000E9442000E9446007894C9
:1000D00080E890E08B3A91054CF487BDEFE4F3ECB7
:1000E0003197F1F700C000000196F4CF8AEA87BD8E
:1000F000EFE4F3EC3197F1F700C0000081508F3747
:08010000B1F7E6CFF894FFCF40
:00000001FF
