:1000000013C01AC019C018C017C016C015C014C03C
:1000100013C012C011C010C01BC00EC024C00CC041
:100020000BC00AC009C008C011241FBECFEFD1E029
:10003000DEBFCDBF23D046C0E3CF509A089585B52B
:10004000816085BD089583E085BB80936E0008952F
:100050001F920F920FB60F921124589A0F900FBE55
:100060000F901F9018951F920F920FB60F921124A8
:1000700058980F900FBE0F901F901895DEDFDFDFAE
:10008000E2DF789480E890E08B3A910564F487BDD4
:100090002FEF31EE44E0215030404040E1F700C006
:1000A00000000196F1CF8AEA87BD9FEF21EE34E090
:1000B000915020403040E1F700C0000081508F3760
:0800C00099F7E0CFF894FFCF9F
:00000001FF
