:100000000C9434000C943E000C943E000C943E0082
:100010000C943E000C943E000C943E000C943E0068
:100020000C943E000C943E000C943E000C943E0058
:100030000C943E000C943E000C943E000C943E0048
:100040000C943E000C943E000C943E000C943E0038
:100050000C943E000C943E000C943E000C943E0028
:100060000C943E000C943E0011241FBECFEFD8E04C
:10007000DEBFCDBF0E9451010C949E010C94000084
:1000800084B1866884B98AB180668AB90895E0E847
:10009000F0E08081806880838081806280838081BD
:1000A00081608083E1E8F0E08081886080838081E6
:1000B000816080838FEF809384001092880010927B
:1000C0008A00089584B5806884BD84B5806284BD4B
:1000D00084B5836084BD85B5816085BD8FEF86BDA5
:1000E00018BC17BC0895FC01808180938800828130
:1000F00080938A00848188BD868187BD0895EF92B0
:10010000FF920F931F93CF93DF938C01EB01E12CB0
:10011000F12CE016F1067CF4F982E882CE010E940F
:1001200073008FE59AEE0197F1F700C000009FEF92
:10013000E91AF90AEECF78011E141F047CF4F98243
:10014000E882CE010E9473008FE59AEE0197F1F7E5
:1001500000C0000091E0E91AF108EECFE12CF12C8B
:10016000E016F1067CF4FB82EA82CE010E94730065
:100170008FE59AEE0197F1F700C000009FEFE91AB2
:10018000F90AEECF78011E141F047CF4FB82EA8288
:10019000CE010E9473008FE59AEE0197F1F700C03F
:1001A000000091E0E91AF108EECFE12CF12CE01605
:1001B000F1067CF4FD82EC82CE010E9473008FE593
:1001C0009AEE0197F1F700C000009FEFE91AF90AD3
:1001D000EECF78011E141F047CF4FD82EC82CE0168
:1001E0000E9473008FE59AEE0197F1F700C00000BE
:1001F00091E0E91AF108EECFE12CF12CE016F106BE
:100200007CF4FF82EE82CE010E9473008FE59AEEAD
:100210000197F1F700C000009FEFE91AF90AEECF4D
:100220001016110674F41F830E83CE010E94730012
:100230008FE59AEE0197F1F700C000000150110917
:10024000EFCFDF91CF911F910F91FF90EF90089525
:10025000EF92FF920F931F93CF93DF938B016FEF7A
:1002600070E00E9476018FEF869F7001879FF00CEF
:100270001124C8E6D1E0F801F182E082C8010E94B1
:1002800073008FE59AEE0197F1F700C00000219707
:10029000209789F7DF91CF911F910F91FF90EF90F9
:1002A0000895CF93DF93CDB7DEB728970FB6F894B4
:1002B000DEBF0FBECDBF0E9447000E9462000E94B9
:1002C00040002F9A87E090E09A8389831C821B82EA
:1002D00089E090E09E838D8318861F82BE016F5F48
:1002E0007F4F82E390E00E947F00F8CF97FB072EBC
:1002F00016F4009407D077FD09D00E948A0107FC0C
:1003000005D03EF4909581959F4F08957095619525
:100310007F4F0895AA1BBB1B51E107C0AA1FBB1F3B
:10032000A617B70710F0A61BB70B881F991F5A9581
:10033000A9F780959095BC01CD010895F894FFCF61
:00000001FF
