:100000000C9434000C943E000C943E000C943E0082
:100010000C943E000C943E000C943E000C943E0068
:100020000C943E000C943E000C943E000C943E0058
:100030000C943E000C943E000C943E000C943E0048
:100040000C943E000C943E000C943E000C943E0038
:100050000C943E000C943E000C943E000C943E0028
:100060000C943E000C943E0011241FBECFEFD8E04C
:10007000DEBFCDBF0E947F000C9424010C940000D1
:1000800084B1866884B98AB180668AB90895E0E847
:10009000F0E08081806880838081806280838081BD
:1000A00081608083E1E8F0E08081886080838081E6
:1000B000816080838FEF809384001092880010927B
:1000C0008A00089584B5806884BD84B5806284BD4B
:1000D00084B5836084BD85B5816085BD8FEF86BDA5
:1000E00018BC17BC0895FC01808180938800828130
:1000F00080938A00848188BD868187BD0895CF93CF
:10010000DF93CDB7DEB728970FB6F894DEBF0FBEEA
:10011000CDBF0E9447000E9462000E9440002F9ABB
:100120001C821B821E821D8218861F8200E010E046
:10013000023311057CF41A830983CE0101960E94D3
:1001400073008FE59AEE0197F1F700C000000F5F92
:100150001F4FEECF02E310E01A830983CE01019610
:100160000E9473008FE59AEE0197F1F700C000003E
:10017000015011090115110579F71C830B83CE017C
:1001800001960E9473008FE59AEE0197F1F700C087
:1001900000000F5F1F4F0233110579F71C830B839B
:1001A000CE0101960E9473008FE59AEE0197F1F758
:1001B00000C00000015011090115110579F71E83D7
:1001C0000D83CE0101960E9473008FE59AEE019790
:1001D000F1F700C000000F5F1F4F0233110579F7E0
:1001E0001E830D83CE0101960E9473008FE59AEE67
:1001F0000197F1F700C00000015011090115110528
:1002000079F718870F83CE0101960E9473008FE55E
:100210009AEE0197F1F700C000000F5F1F4F023305
:10022000110579F718870F83CE0101960E9473009C
:100230008FE59AEE0197F1F700C000000150110917
:0C0240000115110579F774CFF894FFCF79
:00000001FF
