:100000000C942A000C9434000C9434000C943400AA
:100010000C9434000C9434000C9434000C94340090
:100020000C9434000C9434000C9434000C94340080
:100030000C9434000C9434000C9434000C94340070
:100040000C9434000C9434000C9434000C94340060
:100050000C94340011241FBECFE5D8E0DEBFCDBF25
:100060000E943B000C9449000C94000083B785600B
:1000700083BF12BE08958C9A8E9A8D9A0E94360084
:1000800090E182B78A30E8F382B3892782BB12BE3F
:06009000F8CFF894FFCF49
:00000001FF
