:100000000EC015C014C013C012C011C010C00FC064
:100010000EC00DC00CC00BC00AC009C008C011241E
:100020001FBECFE5D2E0DEBFCDBF9DD09FC0E8CFE1
:10003000882319F0BC98C49A02C0BC9AC498BB9893
:10004000C39AEFECF7E03197F1F700C00000BB9ADC
:10005000C398EFECF7E03197F1F700C00000882378
:1000600011F0BC9AC4988FEC97E00197F1F700C0AB
:1000700000000895BC98C49ABB98C39A8FEC97E08F
:100080000197F1F700C0000086B3BB9AC398EFEC6C
:10009000F7E03197F1F700C0000082958170089574
:1000A00088B3877E88BBBB98C39ABC98C49A8FECF0
:1000B00097E00197F1F700C00000089587B3877EAD
:1000C00087BB8FEC97E00197F1F700C00000BC9A66
:1000D000C4988FEC97E00197F1F700C00000BB9A3D
:1000E000C3988FEC97E00197F1F700C000000895E6
:1000F000BB98C39A8FEC97E00197F1F700C000001E
:10010000BC98C49A8FEC97E00197F1F700C000000B
:100110000895CF93DF93D82FC8E08D2F807888DFA4
:10012000DD0FC150D1F780E0DF91CF9108951F938B
:10013000CF93DF93182FD8E0C0E0CC0F9BDFC82B04
:10014000D150D9F7112311F080E001C081E070DFB8
:100150008FEC97E00197F1F700C000008C2FDF9142
:10016000CF911F91089580E0D4DFFDCFF894FFCFA9
:00000001FF
